:100000000C945C000C9479000C9479000C947900A9
:100010000C9479000C9479000C9479000C9479007C
:100020000C9479000C9479000C9479000C9479006C
:100030000C9479000C9479000C9479000C9479005C
:100040000C942F020C9479000C9479000C94790094
:100050000C9479000C9479000C9479000C9479003C
:100060000C9479000C947900000000080002010053
:100070000003040700000000000000000000000072
:10008000250028002B0000000000240027002A0083
:10009000040404040404040402020202020203032E
:1000A0000303030301020408102040800102040836
:1000B000102001020408102011241FBECFEFD8E049
:1000C000DEBFCDBF11E0A0E0B1E0EEEAF6E002C095
:1000D00005900D92A830B107D9F721E0A8E0B1E072
:1000E00001C01D92A13DB207E1F70E9479020C9474
:1000F00055030C94000090E0FC01EC55FF4F249157
:1001000080579F4FFC018491882399F090E0880FDD
:10011000991FFC01EA57FF4FA591B491FC01E458E7
:10012000FF4F859194918FB7F894EC91E22BEC936B
:100130008FBF089590E0FC01E859FF4F2491FC0126
:10014000EC55FF4F3491FC01E057FF4FE491EE2353
:10015000C9F0222339F0233001F1A8F4213019F13C
:10016000223029F1F0E0EE0FFF1FE458FF4FA59178
:10017000B4918FB7F894EC91611126C030953E236D
:100180003C938FBF08952730A9F02830C9F0243060
:1001900049F7809180008F7D03C0809180008F7728
:1001A00080938000DFCF84B58F7784BDDBCF84B5AB
:1001B0008F7DFBCF8091B0008F778093B000D2CF3E
:1001C0008091B0008F7DF9CF3E2BDACF1F93CF9374
:1001D000DF93182F682F661F6627661F89E00E942D
:1001E0009A0061E08AE00E949A0060E08AE00E9442
:1001F0009A00C12FD0E0BE0186E0759567958A957B
:10020000E1F7617089E00E949A0061E08AE00E9453
:100210009A0060E08AE00E949A00BE0195E0759520
:1002200067959A95E1F7617089E00E949A0061E014
:100230008AE00E949A0060E08AE00E949A00BE0173
:1002400024E0759567952A95E1F7617089E00E9431
:100250009A0061E08AE00E949A0060E08AE00E94D1
:100260009A00BE0133E0759567953A95E1F76170A4
:1002700089E00E949A0061E08AE00E949A0060E0B2
:100280008AE00E949A00BE017595679575956795FD
:10029000617089E00E949A0061E08AE00E949A0001
:1002A00060E08AE00E949A00D595C7956C2F617036
:1002B00089E00E949A0061E08AE00E949A0060E072
:1002C0008AE00E949A00612F617089E00E949A0082
:1002D00061E08AE00E949A0060E08AE0DF91CF91BD
:1002E0001F910C949A003FB7F8948091CD019091A2
:1002F000CE01A091CF01B091D00126B5A89B05C039
:100300002F3F19F00196A11DB11D3FBFBA2FA92F94
:10031000982F8827BC01CD01620F711D811D911D91
:1003200042E0660F771F881F991F4A95D1F70895FD
:100330008F929F92AF92BF92CF92DF92EF92FF92F5
:100340004B015C010E9473016B017C010E947301EF
:100350006C197D098E099F09683E734081059105DE
:10036000A8F321E0821A9108A108B10888EEC80E0E
:1003700083E0D81EE11CF11C81149104A104B10496
:1003800029F7FF90EF90DF90CF90BF90AF909F90B4
:100390008F90089560E089E00E949A0089E00E94B1
:1003A0007B0060E08AE00E949A008AE00C947B0067
:1003B000AF92BF92CF92DF92EF92FF920F931F9373
:1003C000CF93DF93D62FC72F5A01F22E0E94CA0176
:1003D00080E00E94E60080E00E94E60080E00E944B
:1003E000E60080E00E94E6000D2F1C2FD0E0C0E068
:1003F0008F2D806EF82ECA15DB0589F42E9684E0C9
:10040000D695C7958A95E1F710E000E0C017D107AF
:10041000D1F080E00E94E6000F5F1F4FF7CFF80198
:10042000E080D180C2808F2D0E94E6008C2D0E943A
:10043000E6008D2D0E94E6008E2D0E94E60021969A
:100440000D5F1F4FD8CFDF91CF911F910F91FF907C
:10045000EF90DF90CF90BF90AF900C94CA011F92A5
:100460000F920FB60F9211242F933F938F939F9368
:10047000AF93BF938091C9019091CA01A091CB0124
:10048000B091CC013091C80123E0230F2D3758F5EE
:100490000196A11DB11D2093C8018093C9019093BD
:1004A000CA01A093CB01B093CC018091CD01909172
:1004B000CE01A091CF01B091D0010196A11DB11D37
:1004C0008093CD019093CE01A093CF01B093D00142
:1004D000BF91AF919F918F913F912F910F900FBE40
:1004E0000F901F90189526E8230F0296A11DB11DAD
:1004F000D2CF789484B5826084BD84B5816084BD98
:1005000085B5826085BD85B5816085BD80916E00B1
:10051000816080936E0010928100809181008260E2
:10052000809381008091810081608093810080911F
:1005300080008160809380008091B100846080930E
:10054000B1008091B00081608093B00080917A000A
:10055000846080937A0080917A00826080937A0030
:1005600080917A00816080937A0080917A0080681F
:1005700080937A001092C10077247A9426E2C22EEA
:1005800021E0D22E30E0A32E30E0B32E4AE0E42E5C
:10059000F12C662463948091C001811106C0F09211
:1005A000BF01E092BE016092C0010091BE011091B6
:1005B000BF018090BC019090BD01801691064CF562
:1005C000E801CC0FDD1FC00FD11FC85FDE4F7A825C
:1005D00021E04CE350E068E071E080E091E00E94AF
:1005E000D80168EE73E080E090E00E949801C801B5
:1005F00001979093BF018093BE018816990609F078
:1006000049C01093BD010093BC01F092BF01E0927C
:10061000BE012091BE013091BF018091BC0190913B
:10062000BD012817390709F685E0882E912C08E0CE
:1006300011E0E8011A8278822396CC16DD06D1F704
:1006400021E04CE350E068E071E080E091E00E943E
:10065000D80164EF71E080E090E00E949801F80119
:1006600010820D5F1F4FC017D107C9F721E04CE37F
:1006700050E068E071E080E091E00E94D801F1E094
:100680008F1A9108A1F6A114B10409F484CF0E9435
:10069000000081CF1A8221E04CE350E068E071E075
:0E06A00080E091E00E94D80180CFF894FFCF57
:0806AE00060100000000D80164
:00000001FF
